:100DE900B5E7B5C6D7B4CCACA3BAB9D800C3C5D793
:100DF900B4CCACA3BAB9D800B4B0C1B1D7B4CCACF7
:0B0E0900A3BAB9D800B9D800BFAA00F6
:100D8C00C180C181C182C183C184C185C186470034
:100D9C001D4572726F722100410026004100250131
:040DAC0041002400DE
:100D5300120538120D19120EE0120EBAA203928771
:100D6300C280C281C282C283120A5B120B8B200033
:100D730006A2039287D200200105120ECDD20120D4
:090D830002E6120EFBD20280DF31
:100D190090001974F8F0A3E4F07BFF7A0D79E97D6E
:100D29000AFC7F0AFE1207767BFF7A0D79F67D327F
:100D39007C007F0A7E001207767BFF7A0E79017D9F
:0A0D49005A7C007F0A7E0002077644
:100A5B00D2A4D2A3D2A230A40930A30630A2032081
:100A6B0006F4200602D20630A40630A30320A24CC3
:100A7B00E4FFFE0FBF00010EBE03F8BFE8F530A484
:100A8B000630A30320A21520A404B203C20020A3A6
:100A9B0004B204C20120A204B205C20230A4FD308C
:100AAB00A3FA30A2F7E4FEFF0FBF00010EBE03F85E
:0C0ABB00BFE8F530A4FD30A3FA30A2F72C
:010AC700220C
:100B8B0020001A7BFF3003067A0E790E80047A0E52
:100B9B0079117D0A7C007FAA7E0012077620011A4C
:100BAB007BFF3004067A0E790E80047A0E79117D64
:100BBB00327C007F8A7E0012077620021A7BFF3080
:100BCB0005067A0E790E80047A0E79117D5A7C0017
:080BDB007FAA7E0012077622BA
:100EE000758921D2AFD2A9758CFE758A33D28C2236
:100EBA00759850758DFA858D8B758780D2ACC2ABCB
:030ECA00D28E22A3
:100ECD00900025300404740180027403F0E4900056
:030EDD0024F022DC
:100BE300E4900000F0900000E0C3941474809480BB
:100BF3005044D280D281C282D2837F6C7E07120E90
:100C0300F0C280D281D282D2837F6C7E07120EF033
:100C1300D280D281D282C2837F6C7E07120EF0D241
:100C230080C281D282D2837F6C7E07120EF0900045
:060C330000E004F080AFB8
:010C39002298
:100C3A00E4900000F0900000E0C394147480948063
:100C4A005044D280C281D282D2837F6C7E07120E38
:100C5A00F0D280D281D282C2837F6C7E07120EF0DC
:100C6A00C280D281D282D2837F6C7E07120EF0D2EA
:100C7A0080D281C282D2837F6C7E07120EF09000EE
:060C8A0000E004F080AF61
:010C90002241
:0A0EFB00200503020BE3120C3A225B
:03000B00020CDC08
:100CDC00C0E0C083C082C0D075D000C007758CFE48
:100CEC00758A33900025E0FF900024E0C39F5004E8
:100CFC00D2868002C286900024E004F0E064287062
:0D0D0C0001F0D007D0D0D082D083D0E032EB
:03002300020AC806
:0D0AC800C0E0C083C082C0D075D000C00760
:100AD500309808C298900026E599F0900026E02409
:100AE500FE600D14601024027012B203C200802D46
:100AF500B204C2018027B205C20280217F00EFC384
:100B05009406748094805015741D2FF582E434008A
:0F0B1500F583E0F5993099FDC2990F80E1C20692
:0B0B2400D007D0D0D082D083D0E032C8
:0B0EF000EF1FAC0670011E4C70F622D4
:100E9C00D3EF9400EE940040147D6E7C00ED1D7039
:0D0EAC00011CED4C70F7EF1F70E61E80E397
:010EB9002216
:10002600BFC60000000000000780003C07C001FCBE
:1000360007803FE0078039C1C78001C0E78001C063
:10004600F78001C0778001DE77807FFE078001C0E0
:10005600078003C3C78003E1E78003F8F78007FC46
:10006600E7F00FDE67F80FDC07F81FC0FF801DDF23
:10007600E78039CC078071C0078061C0078001C066
:10008600078001C0078001E0078001E0078001C00A
:10009600070000000000B5E700000000000E0000A9
:1000A600000F0000000E0000000E0000000E000011
:1000B6000C0E03000FFFFF800E0E07000E0E07004A
:1000C6000E0E07000E0E07000FFFFF000E0E0700B4
:1000D6000E0E07000E0E07000E0E07000E0E07008E
:1000E6000FFFFF000E0E07000E0E06C0080E00C022
:1000F600000E00E0000E00E0000E00E0000FFFF032
:100106000007FFE00000000000000000B5C6000088
:100116000000000000000380000003800000038050
:1001260000E0039FFFF0038C380003B8380003F8A3
:1001360038001BF038003BE038003B8038007B80FD
:1001460038007380380063803800038038000380ED
:100156003800070038000780380007E0380007F04D
:100166003800067038000E3838000C3038001C0095
:1001760038003807F8007001F800600070000000D1
:100186000000D7B4000000000000000001C0C0005D
:1001960001E0FC0001C0EF0001C0E78001C0E3C040
:1001A60031C0E1C03DC0E1801DC0E0401FC0E0E0BD
:1001B6000FFFFFF00DF0F00001C0F00001C0F800E5
:1001C60003C1F80007C1D8000FC1DC003DC1DC0047
:1001D60079C38E0071C38E0021C38F0001C707004B
:1001E60001CE078001CE03E001DC01F001F800E05A
:1001F60001F0000000000000CCAC00000000000E82
:100206000000000F0000000E0000000E0080000E2F
:1002160001C07FFFFFE0301F0000001D8000001DB1
:10022600C0000038E0000078F0000078780001FE99
:100236003E0003CF1FC00F0787F03C0381C0601C40
:10024600000000EF0C0006F787000EE783800EE340
:100256009BC01CE019E03CE019E07CE038C000FFE0
:10026600FC0000FFFC000000000000000000A3BA34
:100276000000000000000000000000000000000078
:100286000000000000000000000000000000000068
:100296000000000000000000000000000000000058
:1002A60000000000000000000F0000001F8000009A
:1002B6001F8000000F00000000000000000000008A
:1002C600000000001F0000001F0000001F000000CB
:1002D6000F00000000000000000000000000000009
:1002E60000000000B9D80000000001C0300000E0A6
:1002F6003C0000707800007870000038E00000389C
:10030600E0000018C1C01FFFFFE01807000000074B
:10031600000000070000000700000007004000077B
:1003260000E07FFFFFF0300F8000000FC000001ECE
:10033600C000001CE000003C7000007878000070EF
:100346003C0001E01E0003C00F80070007F01E00FE
:1003560003F0700000C000000000BFAA000000000B
:1003660000000000000003803FFFFFE018707800E7
:1003760000707800007078000070780000707800D7
:100386000070780000707800007078C0007079E026
:100396007FFFFFF0307078000070780000F0780082
:1003A60000E0780000E0780000E0780001E07800E6
:1003B60001C0780003807800038078000700780089
:1003C6000E0078003C00780070007000000000000D
:1003D600C3C500000000000000000380000001C04B
:1003E600000001E0018000F7FFC000E603C00E60D8
:1003F60003C00F0003C00E0003C00E0003C00E00B2
:1004060003C00E0003C00E0003C00E0003C00E00A2
:1004160003C00E0003C00E0003C00E0003C00E0092
:1004260003C00E0003C00E0003C00E0003C00E0082
:1004360003C00E003FC00E000F800E000700000034
:10044600000000000000B4B000000000000F000033
:10045600000780000C0380E00FFFFFF01C0001F096
:100466001C78F1C03CF83F001BE60F800F8F078019
:100476001C0E0180021C030007FFFF800784070093
:10048600078E0700078E3700079FFF0007B87F001B
:1004960007F0F70007CEE7000787C7000783C70006
:1004A600078FE700079EE70007F867000780070049
:1004B60007FFFF000700070000000000C1B10000B1
:1004C6000000000E000000070000000780001C036B
:1004D60080C01FFFFFE01C0001E03C38C180787837
:1004E6007F0001F01F0003C70F800F8783C01E0720
:1004F60001C03607030007FFFF80070703800707D1
:1005060003800707038007070380070703800707A1
:1005160003800707038007073F8007071F000707B9
:1005260007000007000000070000000700000000A9
:020536000000C3
:0A0DB000420019FFFF42001B000083
:100E5E00E4FDFCC3ED9FEC9E5014E4FBFA0BBB00CB
:0E0E6E00010AEBF44A70F60DBD00010C80E5A0
:010E7C002253
:080E14007E00120E1CE4FFFE3B
:040E1C00AD07AC066C
:100E2000ECFFAE05D2A5C2A7D2B2C2A68F90C2A5D2
:0C0E3000D2A5AF068F90C2A5D2A5D2A714
:010E3C002293
:0D0DBB007E00120E1C90000AE0FEA3E0FF77
:040DC800AD07AC06C1
:100DCC00ECFFAE05D2A5C2A7D2B2D2A68F90C2A517
:0C0DDC00D2A5AF068F90C2A5D2A5D2A769
:010DE80022E8
:040E3D00AD07AC064B
:100E4100ECFFAE05D2A5C2A7D2B2D2A68F90C2A5A1
:0C0E5100D2A5AF068F90C2A5D2A5D2A7F3
:010E5D002272
:06000E007C107F037E0060
:0E001400AB05AA04120E1CAE02AF03020DC80B
:100E7D007590FF7580FFC2A7D2A6C2B200AF90EFEA
:0E0E8D00FED2B2C2B200AD90EDFFD2B2D2A73B
:010E9B002234
:100C9100900018EFF07021FD7C057F01FE12001419
:100CA1007D3012000E900014E4F0A374DCF090008B
:100CB10012E4F0A374B0F0227D007C047F017E0079
:100CC1001200147D3812000E900014E4F0A374B0E9
:0B0CD100F0900012E4F0A374DCF022AD
:10053800E4900000F0A3F0D2B37F64FE120E9CC2D8
:10054800B37F647E00120E9CD2B37F647E00120ECD
:100558009CE4FFFE120E1C120E7D900016EEF0A316
:10056800EFF0E4FFFE120E1C7F017E00120DC87F23
:100578000A7E00120EF07F07120E147F12120E145C
:100588007FA47E00120E1C7F017E00120E1C7F0AC3
:100598007E00120EF07F707E00120E1C7F007E9B84
:1005A800120DC87F077E00120E1C7F317E00120DCF
:1005B800C87F187E00120E1C7F017E00120DC87FB6
:1005C800107E00120E1C7FB07E11120DC87F117EA6
:1005D80000120E1C7F077E00120DC87F127E0012CB
:1005E8000E1C7F177E10120DC87F137E00120E1C82
:1005F8007F0D7E85120DC87F147E00120E1C7F00B1
:100608007E80120DC87F127E00120E1C7F3C7E1069
:10061800120DC87F967E00120E5E7F01120E1C7F9F
:10062800007E05120DC87F027E00120E1C7F007E20
:1006380007120DC87F037E00120E1C7F307E101239
:100648000DC87F087E00120E1C7408FFFE120DC82C
:100658007F0B7E00120E1C7F007E11120DC87F0CCE
:100668007E00120E1CE4FFFE120DC87F0F7E0012E2
:100678000E1C7F017E14120DC87F157E00120E1C01
:10068800E4FFFE120DC87F207E00120E1CE4FFFE60
:10069800120DC87F217E00120E1CE4FFFE120DC849
:1006A8007F507E00120E1CE4FFFE120DC87F517EA3
:1006B80000120E1C7FAF7E00120DC87F527E001202
:1006C8000E1CE4FFFE120DC87F537E00120E1C7F25
:1006D800DB7E00120DC87F707E00120E1C7F007E2C
:1006E8001B120DC87F717E00120E1CE4FFFE120D56
:1006F800C87F907E00120E1CE4FFFE120DC87F9189
:100708007E00120E1C7F007E01120DC87F927E00B3
:10071800120E1C7F017E00120DC87F597E00120E3A
:100728001C7F0C7E05120DC87F907E00120E1C7F68
:10073800107E00120DC87F927E00120E1C7F007E74
:1007480006120DC87F077E00120E1C7F337E021230
:100758000DC87F327E00120E5E7F22120E1C7F01B2
:0E076800120C9190001BE0FEA3E0FF0209D5E9
:1008BD0090000AEEF0A3EFF0A3ECF0A3EDF09000A2
:1008CD0018E070357F50FE120DBD7F517E00120E67
:1008DD001CAF03AE02120DC87F527E00120E1CA378
:1008ED00120DC37F537E00120E1C900010120DC30B
:1008FD007F20120DBB7F2180327F52120DBB7F53A3
:10090D007E00120E1CAE02AF03120DC87F507E008A
:10091D00120E1CA3120DC37F517E00120E1C9000EF
:10092D0010120DC37F21120DBB7F207E00120E1CF5
:0C093D00A3120DC37F227E00120E1C22AC
:0809D500900002EEF0A3EFF028
:1009DD00E4A3F0A3F0900013E024FFFB900012E0DD
:1009ED0034FFFA900015E024FFFE900014E034FF70
:1009FD00900010F0A3CEF0E4FDFCFFFE1208BDE464
:100A0D00FAFBD3900013E09B900012E09A403EE475
:100A1D00900004F0A3F0900014E0FEA3E0FFC3905B
:100A2D000005E09F900004E09E501B900002E0FE48
:100A3D00A3E0FF120E3D900005E004F070D8900089
:0D0A4D0004E004F080D00BBB00010A80B56E
:010A5A002279
:10077600900000EEF0A3EFF0A3ECF0A3EDF0A3EBF6
:07078600F0A3EAF0A3E9F083
:10078D00900004E0FBA3E0FAA3E0F9120B2F700335
:10079D000208BC900000E0FAA3E0FBFFAE02C00629
:1007AD00C007A3E0FCA3E0FDEB241FFBE43AFA90A5
:1007BD000002E0FEA3E0241CFFE43E900010F0A335
:1007CD00EFF0D007D0061208BDE4900007F09000BE
:1007DD0007E0FFC394147480948040030208A19035
:1007ED000004E0FBA3E0FAA3E0F9120B2FFE75F075
:1007FD0076EFA42426F582E5F03400F583E4936EBC
:10080D006003020898900001120B48FF900007E06A
:10081D0075F076A42427F582E5F03400F583E49392
:10082D006F7068FBEBC3947474809480505D90007E
:10083D0007E075F076A42428F582E5F03400F58301
:10084D00E5822BF582E43583F583E493FF90000870
:10085D00E4F0A3EFF0E4FAEAC394087480948050B6
:10086D0027900009E030E705900019800390001BE8
:10087D00E0FEA3E0FF120E3D900009E025E0F090B0
:10088D000008E033F00A80CF0B8099900007E00458
:10089D00F00207DB900005E475F002120B75900075
:0F08AD0001E02420F0900000E03400F002078DFD
:0108BC002219
:03000000020949A9
:0C094900787FE4F6D8FD7581200209904B
:100B2F00BB010689828A83E0225002E722BBFE02C4
:090B3F00E32289828A83E49322F7
:100B4800BB010CE58229F582E5833AF583E0225062
:100B580006E92582F8E622BBFE06E92582F8E222AC
:0D0B6800E58229F582E5833AF583E49322C6
:100B7500C5F0F8A3E028F0C5F0F8E582158270020B
:060B85001583E038F022A8
:10095500020D53E493A3F8E493A34003F68001F258
:1009650008DFF48029E493A3F85407240CC8C333A3
:10097500C4540F4420C8834004F456800146F6DF72
:10098500E4800B0102040810204080900D8CE47E69
:10099500019360BCA3FF543F30E509541FFEE49367
:1009A500A360010ECF54C025E060A840B8E493A32E
:1009B500FAE493A3F8E493A3C8C582C8CAC583CA59
:1009C500F0A3C8C582C8CAC583CADFE9DEE780BE11
:010DBA000038
:00000001FF
